:020000040800F2
:10000000A04700204501000851410008DB2D0008F1
:100010004D4100086D1900088B75000800000000B4
:100020000000000000000000000000009D5D0008CE
:10003000CD2400080000000029470008BB6C000820
:100040005F0100085F0100085F01000875550008A6
:100050005F0100085F0100085F0100085F01000800
:100060005F0100085F0100085F0100085F010008F0
:100070005F0100085F0100085F0100085F010008E0
:100080005F0100085F0100085F0100085F010008D0
:100090005F0100085F0100085F0100085F010008C0
:1000A0005F0100085F0100085F0100085F010008B0
:1000B0005F0100085F0100081D6D00085F01000876
:1000C0005F0100085F0100085F0100085F01000890
:1000D0005F0100085F010008797200085F010008F5
:1000E0005F0100085F0100085F0100085F01000870
:1000F0005F0100085F0100085F0100085F01000860
:100100005F0100085F0100085F0100085F0100084F
:100110005F0100085F0100085F0100085F0100083F
:100120005F0100085F0100085F0100085F0100082F
:10013000DFF80CD000F018FC00480047818D000863
:10014000A04700200648804706480047FEE7FEE734
:10015000FEE7FEE7FEE7FEE7FEE7FEE7FEE7FEE777
:10016000BD6C000831010008F0B480EA0102D40F30
:100170004200B2EB410F02D20246084611464A0045
:1001800042D0C30DDDB2C1F3C752AD1A202D35DA0E
:10019000C1F3160141F4000204B15242C5F1200638
:1001A00002FA06F12A411044B3EBD05F23D0C4B168
:1001B000012DA0EBC35009DCF0BC4FF0004202EA75
:1001C000C35200F50000DBB200F015BB400000F1A7
:1001D000807000EBC350A0F1807040EAD1704900FC
:1001E00009E0490841EAC071A0EBC35000F50000E6
:1001F000400800EBC350F0BC00F0F4BA61420122A9
:1002000002EB4101001BF6E7F0BC704781F00041B2
:10021000AAE780F00040A7E780EA010210B502F0EB
:100220000043400026D04A0023D04FEA106101EB82
:100230001261C0F35600C2F3560240F4000042F4CB
:100240000002A0FB0220A1F17F014FEA004014044C
:1002500001D000F1010050EA124001D44000491ED3
:10026000C2B20C0604EBD010401C4008802A02D019
:1002700003E0002010BD20F00100002900DA00207A
:10028000184310BD30B480EA010202F0004530F09E
:10029000004221F0004015D0A0B1C0F3C753C2F313
:1002A000C754C2F31601C0F31600E41A41F400016A
:1002B00040F400027D34914201D3641C00E0490007
:1002C000002C02DA30BC002070474FF400000023FD
:1002D000914201D3891A034340084FEA4101F7D103
:1002E00051B1914202D14FF0004105E002D24FF0EE
:1002F000010101E06FF0010103EBC450284430BC60
:1003000000F070BA2DE9FE4F804681EA0300C00F6D
:100310000C46009021F0004123F00045B8EB0200AC
:10032000A94105D24046214690461C460B4602464E
:1003300023F00040104304D14046214603B0BDE8FD
:10034000F08F270DC7F30A00C3F30A510290401A39
:100350000190402866DAC3F3130040F4801B009834
:10036000924620B10023D2EB030A63EB0B0B0198FA
:100370005946C0F14002504600F003FA06460D46C9
:1003800050465946019A00F01BFA10EB08006141F3
:10039000002487EA115284EAE7731A433BD0009A9B
:1003A0003AB3019A012A4FEA075210DC001B61EBB5
:1003B00002014FF0004202EA0752CDE90042001C60
:1003C00041F5801132462B4600F04FFAB6E7001B8C
:1003D00061EB0201001C41F5801300185B412018FD
:1003E000A2F5001747EB030140EAD570B6196D413D
:1003F00011E06D084FEA360645EAC0754FEA07522C
:10040000001B61EB0201001C41F5801149084FEA15
:1004100030000019514132462B4603B0BDE8F04F81
:1004200000F016BA0098012240000023D0EB02022F
:1004300063EBE073009821464FEAE074B8EB0000EC
:1004400061EB0401E9E783F000435BE781F00041E1
:1004500058E72DE9FE4F81EA030404F0004421F03F
:10046000004100944FF0000B23F0004350EA0104D8
:1004700002D052EA030404D10020014603B0BDE8D3
:10048000F08FC3F30A54C1F30A552C44A4F2F33499
:100490000194A0FB0254C1F3130141F48011C3F392
:1004A000130343F4801301FB024400FB034E840A50
:1004B000970A44EA815447EA8357A4FB07680295E8
:1004C0008D0A05FB07854FEA932C04FB0C54270586
:1004D000029D4FEA065847EA1637B5EB08056EEB62
:1004E000070C870E920E47EA811742EA8312A7FB98
:1004F0000201B6EB0B0164EB00042B0D43EA0C3355
:100500005E1844EB1C50DA465146E7FB0201C5F386
:1005100013044FEA0B3343EA14534FEA0432019CAD
:1005200043EA0603A4F10C040294009CCDE900B454
:1005300000F09BF9A2E72DE9F04D81EA030404F0F5
:10054000004B21F0004514464FF0000A23F0004113
:1005500050EA050220D054EA01021DD0C5F30A5723
:100560000246C5F31303C1F31300C1F30A5640F466
:10057000801543F48013A7EB0608101BD64608F23B
:10058000FD3873EB050002D308F1010801E0921871
:100590005B41B8F1000F03DA00200146BDE8F08DA1
:1005A00000204FF48011064684460EE0171B73EBC3
:1005B000050705D3121B63EB050306434CEA010C48
:1005C00049084FEA300092185B4150EA0107EDD12B
:1005D00052EA030012D082EA040083EA05010843CC
:1005E00003D100224FF0004308E0101BAB4102D2C0
:1005F0000122002302E06FF0010253101AEB060003
:100600004CEB085110EB0A0041EB0B01BDE8F04D3B
:1006100000F01EB9C10F80EAE0700844CA079623B3
:10062000002100F0E8B896230022114600F0E3B85C
:100630000EB540F2334102910021CDE900110A4686
:100640000B4600F012F903B000BD20F00040C10DD0
:10065000C0F3160040F400007F2901DA0020704743
:10066000962903DCC1F19601C8407047963988404D
:100670007047C1F30A5210B5C1F3130140F2FF33C2
:1006800041F480119A4201DA002010BD40F2334358
:100690009A42A2F2334203DC524200F081F810BDCC
:1006A000904010BD00F0004230F000400AD0C10D73
:1006B00001F56071C0F3160042EA0151C20840071B
:1006C000114370470020014670470000002801DBFD
:1006D000C0F10040002901DBC1F1004181427047B7
:1006E000002801DBC0F10040002901DBC1F100411D
:1006F0008842704730B50B46014600202022012475
:1007000009E021FA02F59D4205D303FA02F5491BDF
:1007100004FA02F52844151EA2F10102F1DC30BDF5
:100720002DE9F05F0546002092469B468846064626
:10073000814640241BE0284641464746224600F0B9
:100740002FF853465A46C01A914110D31146184605
:10075000224600F016F82D1A67EB01084F46224694
:100760000120002100F00DF817EB00094E41201E7A
:10077000A4F10104DFDC484631462A464346BDE881
:10078000F09F202A04DB203A00FA02F10020704793
:100790009140C2F1200320FA03F3194390407047BF
:1007A000202A04DB203A21FA02F00021704721FAC6
:1007B00002F3D040C2F1200291400843194670472D
:1007C000202A06DBCB17203A41FA02F043EAE07315
:1007D00006E041FA02F3D040C2F120029140084302
:1007E000194670470029A8BF7047401C490008BF40
:1007F00020F00100704710B4B0FA80FC00FA0CF051
:1008000050EA010404BF10BC704749B1CCF1200488
:1008100021FA04F411FA0CF118BF01212143084315
:10082000A3EB0C01CB1D0106000A002BBEBF00206C
:1008300010BC704700EBC35010440029A4BF10BC8B
:100840007047401C490008BF20F0010010BC7047F1
:1008500010B5002B08DA401C41F1000192185B41F1
:100860001A4301D120F0010010BD2DE9F04D924650
:100870009B4611B1B1FA81F202E0B0FA80F2203267
:100880009046FFF77EFF04460F4640EA0A0041EA21
:100890000B0153465A46084303D120463946BDE86A
:1008A000F08D114653EA010015D0C8F140025046C0
:1008B000FFF776FF05460E46504659464246FFF77B
:1008C00060FF084301D0012000E00020054346EA14
:1008D000E0762C4337430A984FEA4453A0EB0800D4
:1008E0004FEAD4240A304FF0000244EA47544FEA5A
:1008F000D72502D500200146D1E70105101969412D
:10090000DDE9084500196941BDE8F04DA0E7C1F3F4
:100910000A52C1F3130140F2FF3341F480119A42AD
:1009200002DA00200146704740F233439A42A2F2B5
:10093000334202DC5242FFF733BFFFF722BF000011
:1009400030B5002904DB4FF00044404264EB010164
:10095000002B04DB4FF00044524264EB0303994246
:1009600008BF904230BD0000064C074D06E0E0682D
:1009700040F0010394E8070098471034AC42F6D3E6
:10098000FFF7DAFB1C4701083C4701082DE9F04F4F
:1009900089B00025002600244FF0010900200790AF
:1009A000089003900490059006901022112103A84E
:1009B00000F033FC9DF80D009DF80C1000EB0120B9
:1009C000FE4908809DF80F009DF80E1000EB0120F5
:1009D000FB4908809DF811009DF8101000EB0120E4
:1009E000F84908809DF813009DF8121000EB0120D3
:1009F000F5490880F2480088FFF715FE8246F34962
:100A0000FFF740FC0746ED480088FFF70CFE8046E4
:100A10003946FFF7A9FBEE490860EB480088FFF76D
:100A200002FE8246E949FFF72DFC0746E5480088AB
:100A3000FFF7F9FD80463946FFF796FBE549086068
:100A40009DF815009DF8141000EB0120E249088084
:100A50009DF817009DF8161000EB0120DF49088073
:100A60009DF819009DF8181000EB0120DC49088062
:100A70009DF81B009DF81A1000EB0120D949088051
:100A800001F014F985E30024D748007820B1002054
:100A9000D549087007F02AFD01F06CFFB9F1000F8D
:100AA00002D109B0BDE8F08FD048007F10F0800F70
:100AB0007ED0CE48083030F81400B0F5E87F1DDB5A
:100AC000CA48083030F81400B0F5107F16DCC7486B
:100AD000123030F81400B0F5C77F0FDDC348123074
:100AE00030F81400B0F5E07F08DA0120C049087042
:100AF00003F0C4FA64200BF0DDFE4AE3BB48083083
:100B000030F81400B0F5C57F1CDBB848083030F869
:100B10001400B0F5F67F15DCB448123030F814003C
:100B200082280FDDB148123030F81400A62809DA07
:100B300046B90220AE49087003F0A0FA64200BF019
:100B4000B9FE26E3A948083030F81400B0F5C57F97
:100B50001CDBA648083030F81400B0F5F67F15DC31
:100B6000A248123030F81400BE280FDD9F48123022
:100B700030F81400E22809DA46B903209C490870CD
:100B800003F07CFA64200BF095FE02E397480830EE
:100B900030F8140040F2862188421FDD9348083067
:100BA00030F8140040F2EA21884217DA8F4800E05A
:100BB00090E1123030F8140082280FDD8B4812309B
:100BC00030F81400A62809DA45B9042088490870CD
:100BD00003F054FA64200BF06DFEDAE2834808302B
:100BE00030F8140040F2862188421DDD7F4808302D
:100BF00030F8140040F2EA21884215DA7B481230BE
:100C000030F81400BE280FDD7848123030F8140098
:100C1000E22809DA45B905207549087003F02EFA73
:100C200064200BF047FEB4E27048083030F814003E
:100C3000392842DD6D48083030F81400AB283CDA22
:100C40006A48123030F814004E2836DD67481230FA
:100C500030F81400802830DA06206549087003F067
:100C60000DFA64200BF026FE322372226721104613
:100C700000F0F6FB012020215EA20B46CDE9002109
:100C800002904FF4487257214D2005F09DFF32230A
:100C9000722240F25711104604F03CF80120202146
:100CA00056A20B46CDE9002102904FF4487240F263
:100CB00047114D2005F088FF6BE24C48083030F8B2
:100CC0001400392842DD4948083030F81400AB28B8
:100CD0003CDA4648123030F814009E2836DD43488E
:100CE000123030F81400D02830DA0720404908705C
:100CF00003F0C4F964200BF0DDFD3223722240F2D0
:100D00005711104604F006F8012020213BA20B46A3
:100D1000CDE9002102904FF4487240F247114D2076
:100D200005F052FF32237222B721104600F098FBE3
:100D30000120202133A20B46CDE9002102904FF47F
:100D40004872A7214D2005F03FFF22E227480830D6
:100D500030F8140039286DDD2448083030F81400CC
:100D6000AB2867DA2148123030F81400EE2861DD34
:100D70001E48123030F81400B0F5907F5ADA08207F
:100D80001B49087003F07AF964200BF093FD3223BD
:100D9000722240F25711104603F0BCFF01202021BF
:100DA00016A20B46CDE9002102904FF4487240F2A2
:100DB00047114D2005F008FF322327E08200002074
:100DC00084000020860000208800002000401C468F
:100DD0009000002094000020120000200E0000204F
:100DE000140000201000002007000020AC000020AC
:100DF00076000020C9E8D6C300000000D0A3D7BC0D
:100E000000000000CAD4D1E900000000722240F2C4
:100E10000711104600F024FB01202021DDA20B4623
:100E2000CDE9002102904FF44872F7214D2005F0E2
:100E3000CBFEAEE1D94830F81400392846DDD7485A
:100E400030F81400AB2841DAD4480A3030F81400E6
:100E5000B0F5C77F3ADDD1480A3030F81400B0F55C
:100E6000E07F33DA0920CE49087003F007F96420E7
:100E70000BF020FD3223722240F25711104603F08E
:100E800049FF01202021AFF28C020B46CDE9002161
:100E900002904FF4487240F247114D2005F094FE45
:100EA0003223722240F2A711104600F0D9FA012035
:100EB0002021BCA20B46CDE9002102904FF44872DC
:100EC00040F297114D2005F07FFE62E10020B44909
:100ED00008705EE1B24800780028AAD0B0480078D7
:100EE0000A287CD2DFE800F07B05F9F7F6F5F4F389
:100EF000F2F1AE490988AE4A1288881AFFF78AFBD8
:100F00000746AC490988AC4A1288881AFFF782FB69
:100F100080463946FFF7B6F9A8490860A349098811
:100F2000A34A12888818FFF775FB8346A348016817
:100F30005846FFF771F980469E4909889E4A1288F3
:100F40008818FFF767FB82464146FFF75FF90746BF
:100F50004FF08041FFF796F999490860974800687B
:100F6000FFF773FB9749088008460088FFF75BFB93
:100F70008246924801685046FFF74BF980469249F5
:100F8000FFF74AF90746FFF760FB904908808C4855
:100F90000068FFF75AFB8E49088008460088FFF773
:100FA00042FB8246864801685046FFF732F9804688
:100FB0008549FFF731F90746FFF747FB8549088068
:100FC0007E480068FFF76EFB07463A460B4682A153
:100FD00007A806F0B5FB07A818210B4600E0D6E0ED
:100FE0004FF44872CDE900104FF480714FF4F27065
:100FF00002F094FF72480068FFF754FB07463A4638
:101000000B4675A107A806F09BFB07A818210B4605
:101010004FF44872CDE900104FF49E714FF4F27016
:1010200002F07CFF6748008800128DF80C006548CC
:1010300000788DF80D006548008800128DF80E00CC
:10104000624800788DF80F006148008800128DF822
:1010500010005F4800788DF811005E48008800128B
:101060008DF812005B4800788DF813005148008815
:1010700000128DF814004F4800788DF815004B4889
:10108000008800128DF81600484800788DF8170087
:101090004948008800128DF81800474800788DF8FC
:1010A00019004348008800128DF81A004048007863
:1010B0008DF81B001022112103A800F0EBF800208E
:1010C000374908700025002662E05AE04FE046E00C
:1010D0003BE02DE01DE00FE0FFE700203049087005
:1010E00005203F49087009F029FE00F0DFFD0020CF
:1010F0003B49087001254BE0002029490870322146
:101100000A2001F055FE2949088000F0CFFD002596
:101110003EE000202249087006203149087009F09D
:101120000DFE00F0C3FD00202D49087001262FE0C0
:1011300000201B49087032210A2001F039FE1C49A9
:10114000088000F0B3FD002622E00020144908705A
:101150000AF04EFA0AF072FC4FF0000918E0002085
:101160000F49087007F0E4FE4FF0000910E000207E
:101170000B49087008F020FB08F000FE4FF0000952
:1011800006E000200649087009F072F800E000BF90
:1011900000BF78E4CAFDBEDD00000000B4000020FE
:1011A00076000020B0EFD6FA000000000E0000200C
:1011B00010000020120000201400002090000020E9
:1011C000940000208200002000401C468400002083
:1011D0008600002088000020252D382E346600006F
:1011E0007700002010B5FF2000F028F80446552CA9
:1011F00001D1002010BD5521FF2000F05DF8FF2037
:1012000000F01CF80446552C01D10020F2E7012023
:10121000F0E710B501F00CFE10BD70B504460E46A7
:10122000154608E03046721C96B200F007F804F844
:10123000010B681E85B2002DF4D170BD70B5044657
:10124000002601F0AFFE2546E11704EB11610912FB
:10125000A02202EB4101C8B201F068FE01F0EEFEEF
:10126000E11704EB11610912A4EB0121C8B201F0EE
:101270005DFE01F0E3FE01F095FEA12001F056FEB7
:1012800001F0DCFE002001F017FE064601F0B0FE82
:10129000304670BD70B504460D46164606E021780E
:1012A000284600F009F8681C85B2641C3000A6F1DD
:1012B00001018EB2F3D170BD70B504460E4601F047
:1012C00071FE2546E11704EB11610912A02202EB21
:1012D0004101C8B201F02AFE01F0B0FEE11704EBB3
:1012E00011610912A4EB0121C8B201F01FFE01F047
:1012F000A5FE304601F01AFE01F0A0FE01F078FED6
:101300000A2006F097FE70BD5048806940F0040046
:101310004E4988614E48006820F0F0004C49086052
:101320004A48806940F0100048498861494800688F
:1013300020F00F00474908604448806940F400707D
:10134000424988610846C06840F40070C860084699
:10135000C06820F40070C8600846406820F440402F
:1013600048600846406840F4004048603A480068D9
:101370003A4908403849086008460068086008464D
:10138000006820F480700860081D006820F00200EA
:10139000091D08600846006820F4602008600846BF
:1013A000006840F4602008600846006840F480103F
:1013B00008600846006820F400600860264828306D
:1013C000006820F47000244928310860084600684D
:1013D000086021480830006820F007001E490831E5
:1013E00008600846006840F007000860081D0068B3
:1013F00020F03800091D08600846006840F03800F9
:1014000008601548001D006840F001001249091DE0
:1014100008600846006840F00800086000BF0E48F9
:10142000001D006810F0080FF9D10B48001D00687E
:1014300040F004000849091D086000BF0648001D6F
:10144000006810F0040FF9D170470000001002404E
:10145000000801400010014004240140FFFFF0009B
:101460000FB589B00B98049000EBD070411009982B
:10147000401A80B208900C98049000EBD070411094
:101480000A98401A80B207900B98049000EBD07035
:1014900041100998084480B206900C98049000EB23
:1014A000D07041100A98084480B20590FE48008828
:1014B0000090DDE90532DDE9071002F0FBF9FB4899
:1014C000008800900598401C80B204900898401E47
:1014D00080B203900798401E80B202900898401E88
:1014E00080B2019002A90EC902F0E4F9EF48008829
:1014F00000900598801C80B204900898801E80B2ED
:1015000003900798801E80B202900898801E80B2D7
:10151000019002A90EC902F0CDF9E44800880090BC
:101520000598C01C80B204900898C01E80B2039039
:101530000798C01E80B202900898C01E80B2019029
:1015400002A90EC902F0B6F9D848008800900798A1
:10155000401E80B204900698401C80B20390079809
:10156000401E80B202900898401E80B2019002A9ED
:101570000EC902F09FF9CD48008800900798801EA0
:1015800080B204900698801C80B203900798801E59
:1015900080B202900898801E80B2019002A90EC904
:1015A00002F088F9C148008800900798C01E80B2F8
:1015B00004900698C01C80B203900798C01E80B2A9
:1015C00002900898C01E80B2019002A90EC902F0D4
:1015D00071F9B748008800900598401C80B20490CB
:1015E0000698401C80B203900698401C80B202907E
:1015F000DDE90323079902F05DF9AD48008800900A
:101600000598801C80B204900698801C80B20390DC
:101610000798401E80B202900698801C80B201900C
:1016200002A90EC902F046F9A14800880090059869
:10163000C01C80B204900698C01C80B2039007982A
:10164000801E80B202900698C01C80B2019002A950
:101650000EC902F02FF99648008800900598401EA8
:1016600080B204900698401C80B203900898401EF7
:1016700080B20290DDE90323059902F01BF98C4842
:10168000008800900598801C80B204900698801C09
:1016900080B203900598401C80B202900898801E8A
:1016A00080B2019002A90EC902F004F980480088B6
:1016B00000900598C01C80B204900698C01C80B2AF
:1016C00003900598801C80B202900898C01E80B2DA
:1016D000019002A90EC902F0EDF80B9832287DDDC9
:1016E0007248008800900598001D80B20490089808
:1016F000001F80B203900798001F80B202900898E4
:10170000001F80B2019002A90EC902F0D3F8674809
:10171000008800900598401D80B204900898401FF2
:1017200080B203900798401F80B202900898401F33
:1017300080B2019002A90EC902F0BCF85B48008893
:1017400000900598801D80B204900898801F80B298
:1017500003900798801F80B202900898801F80B283
:10176000019002A90EC902F0A5F850480088009027
:101770000798001F80B204900698001D80B2039065
:101780000798001F80B202900898001F80B2019055
:1017900002A90EC902F08EF844480088009007980C
:1017A000401F80B204900698401D80B203900798B5
:1017B000401F80B202900898401F80B2019002A999
:1017C0000EC902F077F83948008800900798801F0A
:1017D00080B204900698801D80B200E09DE00390E6
:1017E0000798801F80B202900898801F80B20190F5
:1017F00002A90EC902F05EF82D48008800900598F5
:10180000001D80B204900698001D80B203900798D6
:10181000C01E80B202900698001D80B2019002A9FD
:101820000EC902F047F82248008800900598401D34
:1018300080B204900698401D80B203900798001F64
:1018400080B202900698401D80B2019002A90EC994
:1018500002F030F81648008800900598801D80B28C
:1018600004900698801D80B203900798401F80B2B4
:1018700002900698801D80B2019002A90EC902F064
:1018800019F80B48008800900598001D80B204905C
:101890000698001D80B203900598C01C80B202908B
:1018A0000898001F80B205E0A0000020A4000020DE
:1018B000A2000020019002A90EC901F0FBFF184808
:1018C000008800900598401D80B204900698401D45
:1018D00080B203900598001D80B202900898401FC6
:1018E00080B2019002A90EC901F0E4FF0C48008803
:1018F00000900598801D80B204900698801D80B2EB
:1019000003900598401D80B202900898801F80B215
:10191000019002A90EC901F0CDFF0DB000BD00007D
:10192000A200002010B5012003F086FC002003F087
:1019300083FC10BD08B501460020009003480090CC
:101940000098084400900098008808BD006C004092
:1019500008B500220092044A0092009A02440092C4
:10196000009A116008BD0000006C004000BFFEE757
:1019700010B50020114908601148006820F0F000FF
:101980000F4908600846006840F0300008604FF0DA
:10199000050006F06BFB00200A49C1F8A4010520F0
:1019A00006F064FB0120054908604FF0050006F0D1
:1019B0005DFB00200449C1F8840110BD84812142EF
:1019C000041C0140008023420080214208B501210F
:1019D000882003F021FC0220ADF8000010208DF8D3
:1019E000030003208DF8020069460A4801F0B8F8A8
:1019F0000221084801F03FF94FF40070ADF80000F3
:101A00006946054801F0ACF84FF40071024801F056
:101A100032F908BD000C0140001C014010B5002047
:101A2000114908601148006820F0F0000F49086073
:101A30000846006840F0300008604FF0050006F0EE
:101A400015FB01200A49C1F8A401052006F00EFB90
:101A50000120054908604FF0050006F007FB002053
:101A60000449C1F8840110BD84812142041C014055
:101A7000008023420080214270B5054600241748AB
:101A8000006820F0F000154908600846006840F042
:101A9000800008601E2006F0E9FA002613E000200E
:101AA0000F4908604FF0050006F0E0FA01200D49EB
:101AB000C1F884016006040E0B48006808B1601C80
:101AC000C4B2701CC6B2082EE9DB15B9FFF7A6FF39
:101AD00001E0FFF74DFF204670BD0000041C0140EF
:101AE00084812142008021422481234270B5044632
:101AF0001748006820F0F0001549086008460068A3
:101B000040F0300008600020124908604FF00500E6
:101B100006F0ACFA002518E0E0090F4908604FEA2A
:101B200044604FEA10644FF001000C49C1F8840191
:101B30004FF0050006F09AFA0020064908604FF0C1
:101B4000050006F093FA681CC5B2082DE4DB70BDF1
:101B5000041C014084812142A4812342008021424F
:101B600010B51048006820F0F0000E4908600846E3
:101B7000006840F03000086001200B4908600B4904
:101B8000C1F884014FF01E0006F070FA00200649EB
:101B900008604FF0050006F069FA00200349C1F81B
:101BA000840110BD041C0140A48123420080214215
:101BB00010B50E48006820F0F0000C490860084697
:101BC000006840F0300008600120094908604FF0CB
:101BD0001E0006F04BFA00200649C1F8A4010520BA
:101BE00006F044FA01200449086010BD041C0140BD
:101BF0008481214200802342A481234210B5002425
:101C00001448006820F0F000124908600846006897
:101C100040F08000086001200F4908600F49C1F8BA
:101C200084014FF0050006F021FA0AE0601CC4B2FE
:101C3000FA2C03DDFFF7BCFF012010BD052006F0E4
:101C400015FA074800680028F0D10649086000BF6F
:101C5000F3E70000041C0140A481234200802142DC
:101C6000248123428481214270B50A46FF23FF2448
:101C700009E010F8015B85EA0301084D6D5C85EA17
:101C80000403074D6C5C1500A2F10106F2B2F0D11D
:101C9000044D2B70044D2C7070BD00001A450108D6
:101CA0001A460108CD000020CE00002070B586B095
:101CB00000200490059047F6FF704FF4F0734FF446
:101CC000487250210090F02001F0F4FD012018210D
:101CD0008FA20B46CDE9002102904FF44872882173
:101CE00040F2251004F070FF012018218BA20B4652
:101CF000CDE9002102904FF44872882140F2222061
:101D000004F062FF4FF6FF70A62340F2ED1282212D
:101D1000009040F2891001F0CDFD4FF6FF70A62330
:101D200040F2EA228221009040F2862001F0C2FDBA
:101D3000012018217CA20B46CDE9002102904FF42E
:101D40004872C42140F2251004F03EFF0120182102
:101D500077A20B46CDE9002102904FF44872C421CE
:101D600040F2222004F030FF4FF6FF70E22340F2F1
:101D7000ED12BE21009040F2891001F09BFD4FF65C
:101D8000FF70E22340F2EA22BE21009040F286205A
:101D900001F090FD0120182167A20B46CDE900213A
:101DA00002904FF4487201024FF4E67004F00CFF09
:101DB0000120182161A20B46CDE9002102904FF4C9
:101DC00048724FF49E714FF4E67004F0FDFE5C48DB
:101DD00004884FF6FF705A4908805A4802885AA171
:101DE00004A805F0ADFC04A818210B464FF4487276
:101DF000CDE90010882140F29D1002F08FF8544880
:101E0000028851A104A805F09BFC04A818210B46E8
:101E10004FF44872CDE90010882140F29A2002F078
:101E20007DF84C4802884CA104A805F089FC04A860
:101E300018210B464FF44872CDE90010C42140F23E
:101E40009D1002F06BF84648028843A104A805F0F3
:101E500077FC04A818210B464FF44872CDE9001016
:101E6000C42140F29A2002F059F847F6FF70344935
:101E700008803C480068FEF715FC05462A460B46DC
:101E800039A104A805F05CFC04A818210B464FF406
:101E90004872CDE900104FF480714FF4F27002F0F7
:101EA0003DF833480068FEF7FDFB05462A460B4621
:101EB0002DA104A805F044FC04A818210B464FF4FA
:101EC0004872CDE900104FF49E714FF4F27002F0A9
:101ED00025F84EF65B701A4908803223722240F2D0
:101EE000A7114FF4027002F015FF0120202121A25A
:101EF0000B46CDE9002102904FF4487240F2971151
:101F00004FF4F47004F060FE0D48048006B070BD1C
:101F1000B1EAB6A8B5E3313A00000000B1EAB6A8CC
:101F2000B5E3323A000000004144313A00000000BD
:101F30004144323A000000004B3A0000433A0000AE
:101F40009E00002012000020252D30346400000087
:101F5000140000200E000020252D30356400000004
:101F60001000002090000020252D382E346600003F
:101F700094000020D0A3D7BC000000002DE9F0475A
:101F800000240025E248C07A52287DD10020E04993
:101F9000C872E04890F84C04012804D003287FD090
:101FA000052873D195E1DB4890F84F040106D94824
:101FB00090F8500401EB0041D64890F8510401EB31
:101FC0000021D44890F852040844D3490860D1480D
:101FD00090F853040106CF4890F8540401EB0041F7
:101FE000CC4890F8550401EB0021CA4890F85604FB
:101FF0000844CA490860C74890F857040106C54814
:1020000090F8580401EB0041C24890F8590401EBE4
:102010000021C04890F85A040844C1490860BD48EE
:1020200090F85B040106BB4890F85C0401EB0041AA
:10203000B84890F85D0401EB0021B64890F85E04C2
:102040000844B8490860B34890F85F040106B148F5
:1020500090F8600401EB0041AE4890F8610401EB98
:102060000021AC4890F862040844AF490860A948D0
:1020700090F863040106A74890F8640401EB00415E
:10208000A44890F8650402E040E109E03DE101EB7D
:102090000021A04890F866040844A449086034E18F
:1020A0009C4890F84F0401069A4890F8500401EBC0
:1020B0000041984890F8510401EB0021954890F8B0
:1020C000520408449A490860924890F85304010663
:1020D000904890F8540401EB00418E4890F8550464
:1020E00001EB00218B4890F85604084491490860A0
:1020F000884890F857040106864890F8580401EB88
:102100000041844890F8590401EB0021814890F87F
:102110005A040844884908607E4890F85B04010628
:102120007C4890F85C0401EB00417A4890F85D042B
:1021300001EB0021774890F85E0408447F4908606D
:10214000744890F85F040106724890F8600401EB4F
:102150000041704890F8610401EB00216D4890F84F
:1021600062040844764908606A4890F863040106EE
:10217000684890F8640401EB0041664890F86504F3
:1021800001EB0021634890F8660408446D4908603B
:102190006D480078401C6C49087008460078062895
:1021A0007ED1002008705C480068FEF73CFA80464B
:1021B0005F480068FEF737FA81464146FEF762F84D
:1021C00007464FF07E51FEF724F806465F49FEF7BA
:1021D00023F85F49086051480068FEF724FA8046FA
:1021E00054480068FEF71FFA81464146FEF74AF858
:1021F00007464FF07E51FEF70CF806465349FEF7AE
:102200000BF85449086046480068FEF70CFA80460F
:1022100049480068FEF707FA81464146FEF732F862
:1022200007464FF07E51FDF7F4FF06464749FDF79C
:10223000F3FF494908603B480068FEF7F4F980461F
:102240003E480068FEF7EFF981464146FEF71AF86E
:1022500007464FF07E51FDF7DCFF06463B49FDF790
:10226000DBFF3E49086030480068FEF7DCF9804635
:1022700033480068FEF7D7F981464146FEF702F879
:1022800007464FF07E51FDF7C4FF06462F49FDF784
:10229000C3FF3349086025480068FEF7C4F900E031
:1022A00016E0804627480068FEF7BDF981464146A2
:1022B000FDF7E8FF07464FF07E51FDF7AAFF0646FF
:1022C0002249FDF7A9FF2749086001202649087027
:1022D0001BE0104890F8501490F84F0401EB0020D8
:1022E00084B20C4890F8521490F8510401EB00208D
:1022F00085B2C4EB04414819FEF78CF906461B4928
:10230000FDF7C0FF1A49086000BF00BFBDE8F087B5
:10231000181100202C11002024000020280000208B
:102320002C00002030000020340000203800002065
:102330003C00002040000020440000204800002015
:102340004C00002050000020210000200000C84266
:1023500054000020580000205C0000206000002095
:1023600064000020680000207C00002000007A4407
:102370001C000020FEB50025012647F6FF704FF433
:10238000F0734FF4487250210090F02001F092FA5F
:10239000404805884FF478403E49088001201821C4
:1023A0003DA20B46CDE9002102904FF44872CA21AC
:1023B0004FF49E7004F008FC364805804EF65B70C2
:1023C0004FF4E0734FF445724FF49F710090F0208A
:1023D00001F070FA3223722240F27F114FF4027042
:1023E00002F098FC0120182134A20B46CDE900210F
:1023F00002904FF4487240F273114FF4F87004F0F9
:10240000E3FB43E0002400F0B5FA2E48007F10F013
:10241000800F28D02B48083030F81400B0F5E87F42
:102420001DDB2848083030F81400B0F5107F16DCAA
:102430002448123030F81400B0F5B37F0FDD214886
:10244000123030F81400B0F5CC7F08DA01201E49B4
:10245000087001F013FE64200AF02CFA16E0002048
:102460001949087012E01848007878B116480078C9
:10247000012806D1002600201349087006F058FDF7
:1024800000E000BF00BF00200F490870002EB9D146
:10249000FEBD00009C000020CAFDBEDDD2D1C2FA04
:1024A0002CC7EBBDF8C8EB3CCAFDBEDD3EB2CBB5D8
:1024B000A52CBDF8D0D0C7E5BFD52100C8B7B6A8B8
:1024C00000000000AC0000207600002070470000F3
:1024D000FEB50025012647F6FF704FF4F0734FF468
:1024E000487250210090F02001F0E4F9734805880B
:1024F0004FF47840714908800120182170A20B46E2
:10250000CDE9002102904FF44872CA214FF48C703B
:1025100004F05AFB694805804EF65B704FF4E07397
:102520004FF445724FF49F710090F02001F0C2F912
:102530003223722240F27F1140F2971002F0EAFB40
:102540000120182168A20B46CDE9002102904FF42A
:10255000487240F2731140F27F1004F035FB3223D1
:10256000722240F27F1140F2772002F0D3FB01206B
:1025700018215FA20B46CDE9002102904FF448726A
:1025800040F2731140F25F2004F01EFB91E0002442
:1025900000F0F0F95848007F10F0800F4ED05648F8
:1025A000083030F81400B0F5AF7F1DDD5248083018
:1025B00030F81400B0F5E87F16DA4F48123030F8E2
:1025C0001400B0F5B37F0FDD4B48123030F8140023
:1025D000B0F5CC7F08DA01204849087001F04EFDC3
:1025E00064200AF067F964E04348083030F81400CA
:1025F00040F23E2188421DDD3F48083030F814008B
:10260000B0F52C7F16DA3C48123030F81400B0F5E3
:10261000B37F0FDD3848123030F81400B0F5CC7FAE
:1026200008DA02203549087001F028FD64200AF01C
:1026300041F93EE00020314908703AE02F48007827
:1026400088B32E480078012802D002282CD125E03A
:10265000002600202949087003F040FA642005F0A4
:10266000F8FC012003F03AFA642005F0F2FC0220A5
:1026700003F034FA642005F0ECFC032003F02EFA9A
:10268000642005F0E6FC01201D4908701D49087012
:10269000084601782120FEF70FFE06E00026002004
:1026A0001649087001E004E000BF00BF0020134994
:1026B0000870002E7FF46BAFFEBD00009C00002070
:1026C000BCB4BDABC7E5B3FDCBF9D3D0CAFDBEDD0D
:1026D0002CC7EBC8B7B6A8CAC7B7F1BCCCD0F8BDF9
:1026E000F8D0D02100000000C8B7B6A80000000054
:1026F000C8A1CFFB00000000AC0000207600002045
:10270000200000207A00002051B14FF0204252F802
:10271000202042F001024FF0204343F8202009E03E
:102720004FF0204252F82020034B1A404FF0204334
:1027300043F8202070470000FEFF0F00D0E901128F
:102740001143C2681143026911434269114382690E
:102750001143C2691143026A1143426A1143826AFA
:102760001143C26A1143026B11434FF020430268C8
:1027700043F822108168082908D11A46016852F8E6
:10278000211041F04001026843F82210416B0968B2
:10279000426B526841EA0211426B926841EA02219F
:1027A000426B928941EA0241426B128A41EA02512C
:1027B000426B127D41EA0261426B926911430268E9
:1027C000521C4FF0204343F82210C16AB1F5804FEC
:1027D0001AD1816B0968826B526841EA0211826BDF
:1027E000926841EA0221826B128A41EA0251826BAD
:1027F000127D41EA0261826B92691143026803EB28
:102800008202C2F8041108E06FF070414FF02043DB
:10281000026803EB8202C2F80411704708B53A4817
:10282000806940F08000384988610846806940F03E
:10283000080088613548006820F4706033490860FA
:102840000846006840F44070086030480C3000686A
:1028500040F004002D490C3108602D48006820F438
:1028600070602B4908600846006840F4006008600A
:1028700027480830006840F4806025490831086026
:10288000FFF7A4F80020234908604FF0140005F07A
:10289000E0FB01202049C1F88801322005F0D9FB76
:1028A00000208DF800000122694600F005F90122A0
:1028B0006946A42000F000F916208DF800000122DE
:1028C0006946802000F0F8F80C208DF80000012205
:1028D0006946882000F0F0F802226946A12000F045
:1028E0001DF89DF80000302802D09DF8000048B97E
:1028F0009DF80100032803D09DF80100012801D1B3
:10290000002008BD0120FCE700100240000C01403F
:10291000041C014088812142008021422DE9F041C0
:1029200006460F461546FFF71BF97020FFF7DEF845
:10293000FFF764F9F0B2FFF7D9F8FFF75FF9FFF797
:102940000FF97120FFF7D2F8FFF758F900240BE0D8
:10295000691EA14201D0012100E000210846FFF7D5
:102960008BF83855601CC4B2AC42F1DBFFF720F99C
:10297000BDE8F0817CB500240026002000904B4883
:102980000078401C49490870084600780A2190FBED
:10299000F1F201FB120018B1444800780A2861DA0C
:1029A000012269460220FFF7B9FF9DF8000010F0F0
:1029B0000F0F57D09DF8000000F00F00062851DAE5
:1029C0009DF8000000F00F01FF208840C5B2E843E9
:1029D000C0B240F0C00036490877002434E03448E3
:1029E000007F0121A14008422CD0324931F8140067
:1029F000042201A9FFF792FF9DF805009DF804103D
:102A000001F00F0100EB01202949123121F81400D7
:102A10009DF807009DF8061001F00F0100EB012062
:102A20002349083121F814009DF8040000F0F0005B
:102A3000802807D000211E48123020F814100A38D0
:102A400020F81410601CC4B2052CC8DB01261848FD
:102A5000008920B91648408A08B90020009000205B
:102A6000124908709DF8000010F01F0F15D1104892
:102A7000007F10F0800F06D00D48007F20F080000E
:102A80000B49087709E04FF6FF7009490881488231
:102A90000846007F00F0E000087704480078F0283E
:102AA00002DD0A200149087030467CBDCC000020C0
:102AB000AC000020104501082DE9F04105460E4606
:102AC00017464FF00008FFF74BF87020FFF70EF89D
:102AD000FFF794F8E8B2FFF709F8FFF78FF8002442
:102AE0000BE0305DFFF702F8FFF788F88046B8F199
:102AF000000F00D003E0601CC4B2BC42F1DB00BF99
:102B0000FFF756F84046BDE8F081000008B54FF4E5
:102B1000F070ADF8000010208DF8030003208DF850
:102B2000020069460C4800F01BF84FF4F0710A48A7
:102B300000F09FF82020ADF8000010208DF8030071
:102B400003208DF802006946044800F009F82021AE
:102B5000024800F08EF808BD000C0140001801404A
:102B60002DE9F04102460025002600200023002424
:102B7000002791F803C00CF00F0591F803C01CF07A
:102B8000100F03D091F802C04CEA050591F800C07F
:102B9000BCF1000F31D0146800202BE04FF0010C85
:102BA0000CFA00F3B1F800C00CEA03069E4220D1F3
:102BB00083004FF00F0C0CFA03F7BC4305FA03FC3B
:102BC0004CEA040491F803C0BCF1280F06D14FF081
:102BD000010C0CFA00FCC2F814C00AE091F803C022
:102BE000BCF1480F05D14FF0010C0CFA00FCC2F803
:102BF00010C0401C0828D1D31460B1F800C0BCF14B
:102C0000FF0F34DD546800202EE000F1080C4FF077
:102C1000010808FA0CF3B1F800C00CEA03069E4262
:102C200021D183004FF00F0C0CFA03F7BC4305FAD7
:102C300003FC4CEA040491F803C0BCF1280F05D151
:102C400000F1080C08FA0CF8C2F8148091F803C0DF
:102C5000BCF1480F07D100F1080C4FF0010808FA49
:102C60000CF8C2F81080401C0828CED35460BDE890
:102C7000F081416170470161704700002DE9F04724
:102C800005460E4617469846B5F5487F02D3002004
:102C9000BDE8F087B6F5F07F01D30020F8E7002407
:102CA00024E0E11704EB5171C910B4EBC10101D16B
:102CB00017F8019B04F007000E49085C10EA090FA1
:102CC00003D10D48B0F800A002E00C48B0F800A015
:102CD000B1B2A8B2524600F02FF8681C0546B0F514
:102CE000487F01D30020D3E7601C84B24445D8D389
:102CF0000120CDE707450108A8000020A60000201C
:102D00002DE9F04380460E4614461D46DDF81C9022
:102D100000270DE02B46224631464046FFF7AEFF26
:102D2000761C04EBD50415F0070F00D0641C7F1C43
:102D30004F45EFD3BDE8F08370B505460E46144607
:102D40003146284600F076FF01F086F901480480FC
:102D500070BD00000008006C024A1080024A118019
:102D600070470000A6000020A800002001460F4880
:102D7000006820F01F000D4A1060104600680843EC
:102D800010600A482C38006840F48000074A2C3A4A
:102D9000106000BF05483438006810F0020FF9D009
:102DA00002481830006880B27047000034240140A7
:102DB00070B506460B460024002508E03046FFF7B4
:102DC000D5FF0444322005F051F9681CC5B29D427C
:102DD000F4DBB4FBF3F080B270BD00BFFEE700008F
:102DE00010B500200F4908600F48006820F47040BB
:102DF0000D4908600846006840F4405008604FF0F4
:102E000000000A49C1F8AC014FF0010005F02EF9AD
:102E100001200449086005F029F900200349C1F8A0
:102E2000A80110BDA8812142040C0140008021426C
:102E30000C48806940F008000A4988610A48006827
:102E400020F47F40084908600846006840F44C5070
:102E5000086005480830006840F4406002490831C5
:102E60000860704700100240040C014010B50020BB
:102E70000E4908600E48006820F470400C49086054
:102E80000846006840F4405008604FF001000949CE
:102E9000C1F8AC0105F0EAF801200449086005F02A
:102EA000E5F800200349C1F8A80110BDA88121421E
:102EB000040C01400080214270B5054600241748EB
:102EC000006820F47040154908600846006840F426
:102ED00000400860002616E00020114908604FF00D
:102EE000010005F0C3F801200E49C1F8A8016006F1
:102EF000040E0D48006808B1601CC4B2012005F042
:102F0000B5F8701CC6B2082EE6DB15B9FFF7AEFFA8
:102F100001E0FFF765FF204670BD0000040C014092
:102F2000A8812142008021422C81214270B50446B3
:102F30001848006820F47040164908600846006888
:102F400040F4405008600020134908604FF0010031
:102F500005F08CF8002519E0E009104908604FEAF7
:102F600044604FEA10644FF0010005F07FF8012043
:102F70000B49C1F8A80105F079F80020064908605E
:102F80004FF0010005F072F8681CC5B2082DE3DBB4
:102F900070BD0000040C0140A8812142AC81214297
:102FA0000080214210B50F48006820F470400D49A0
:102FB00008600846006840F44050086001200A4953
:102FC00008600A49C1F8A80105F050F80020064938
:102FD00008604FF0010005F049F800200349C1F8EE
:102FE000A80110BD040C0140AC81214200802142A7
:102FF00010B50F48006820F470400D49086008467D
:10300000006840F44050086000200A4908600A49FE
:10301000C1F8AC014FF0010005F028F80120054986
:1030200008600549C1F8AC0105F020F810BD0000AA
:10303000040C0140A88121420080214210B50024E7
:103040001348006820F47040114908600846006881
:1030500040F40040086001200E49086005F006F8C1
:1030600001200D49C1F8A80105F000F807E0601C37
:10307000C4B2FA2C03DDFFF7BBFF012010BD0748E7
:1030800000680028F3D10649086000BFF6E7000099
:10309000040C0140AC812142008021422C8121425C
:1030A000A881214210B502F0CDF8FFF72FFD00F006
:1030B000C9FB00F0A1FA03F0A5FE02F033FD04F015
:1030C00055F910BD0146CA1701EB92729210B1EB8F
:1030D000820212D1642091FBF0F200FB121050B971
:1030E0004FF4C87091FBF0F200FB121008B90120F8
:1030F00070470020FCE70120FAE70020F8E7000015
:103100000EB54FF48C734FF4DC72F0214FF4027063
:1031100001F000FE1F20992340F2DA227121009075
:103120004FF49B7000F0C6FB4FF6FF70E449088037
:1031300028231A46852140F2C62001F0EBFD4FF40A
:10314000784002218F234FF43472CDE900107B21A7
:103150004FF42F7005F0BCFD4FF4784002217B2323
:103160004FF43472CDE900108F214FF42F7005F029
:10317000AFFD2823C822BA214FF4CD70FEF770F9B5
:10318000D048007801281BD11821CFA20B46CDE9E9
:10319000002102904FF4487279214FF4A07003F09F
:1031A00013FD01201021CBA20B46CDE90021029096
:1031B0004FF448727D214FF4D67003F005FD76E0A0
:1031C000C048007802281CD101201821C5A20B4656
:1031D000CDE9002102904FF4487279214FF4A0709C
:1031E00003F0F2FC01201021C1A20B46CDE9002121
:1031F00002904FF448727D214FF4D67003F0E4FC46
:1032000055E0B0480078032828D101201821BCA23D
:103210000B46CDE9002102904FF4487279214FF41A
:10322000A07003F0D1FC01201021B8A20B46CDE91B
:10323000002102904FF448727D214FF4D67003F0C4
:10324000C3FCB6A018210B464FF44872CDE900101C
:10325000AE214FF49B7000F061FE28E099480078A1
:1032600004280ED101201821AFA20B46CDE9002180
:1032700002904FF4487279214FF4A07003F0A4FC3F
:1032800015E090480078052803D08E48007806287D
:103290000DD101201821A8A20B46CDE900210290F2
:1032A0004FF4487279214FF4A07003F08DFC1F2079
:1032B0008349088028235022EF214FF4B67001F093
:1032C00029FD01201821A0A20B46CDE90021029082
:1032D0000A46E3214FF4B37003F076FC2823502212
:1032E000EF214FF4EA7001F015FD0120182197A29B
:1032F0000B46CDE9002102900A46E3214FF4E77026
:1033000003F062FC28235022EF214FF40F7001F0EC
:1033100001FD012018218EA20B46CDE9002102906B
:103320000A46E32140F2362003F04EFC28235022C7
:10333000EF214FF4297001F0EDFC0120182185A246
:103340000B46CDE9002102900A46E32140F29E207F
:1033500003F03AFC282350224FF492714FF4B670D8
:1033600001F0D8FC012018217BA20B46CDE90021F9
:1033700002900A464FF48C714FF4B37003F024FCB2
:10338000282350224FF492714FF4EA7001F0C2FCEE
:103390000120182171A20B46CDE9002102900A46B6
:1033A0004FF48C714FF4E77003F00EFC2823502289
:1033B0004FF492714FF40F7001F0ACFC0120182112
:1033C0004EA20B46CDE9002102900A464FF48C71C3
:1033D00040F2362003F0F8FB282350224FF492717C
:1033E0004FF4297001F096FC012018215CA20B46D5
:1033F000CDE9002102900A464FF48C7140F29E20E4
:1034000003F0E2FB2823502240F259114FF4B6702A
:1034100001F080FC0120182152A20B46CDE90021C9
:1034200002900A4640F24D114FF4B37003F0CCFB0A
:103430002823502240F259114FF4EA7001F06AFC3F
:103440000120182134A20B46CDE9002102900A4642
:1034500040F24D114FF4E77003F0B6FB28235022E1
:1034600040F259114FF40F7001F054FC0120182163
:103470003DA20B46CDE9002102904FF4487240F284
:103480004D114FF4097003F09FFB2823502240F2A6
:1034900059114FF4297001F03DFC0120182134A28C
:1034A0000B46CDE9002102904FF4487240F24D11D5
:1034B0004FF4237003F088FB0020014908800EBD03
:1034C0009C00002077000020B2D9D7F7D4B1BAC54C
:1034D00000000000B7B6CEA73A28312D3939393966
:1034E00029000000C8D5C6DAC9E8D6C3000000002C
:1034F000C0FDC8E73A323032303035303700000096
:10350000CAB1BCE4C9E8D6C300000000C0FDC8E7EA
:103510003A31323A30333A343000000020203A2039
:10352000203A202000000000C7EBCAE4C8EB36CEEA
:10353000BBCAFDC3DCC2EB00B1EAB6A8CFB5CAFD79
:103540003A312D31303030003100000032000000BF
:103550003300000034000000350000003600000099
:103560003800000039000000C7E5C1E3000000009A
:10357000C8B7C8CF000000002DE9F0470446BE20C0
:1035800000F064FD052000F05BFD2046FDF750F8DB
:1035900007464FF066320C4BFCF75BFF0546FDF724
:1035A00068F81FFA80F9484600F04AFD012000F053
:1035B00047FDFF2000F044FD002000F041FD002009
:1035C00000F03EFDBDE8F0876666044070B5044635
:1035D0000025074E0021084600F02CFB00F03CFDC2
:1035E00000BF02E0034804806D1CB542FAD370BDF1
:1035F00000DC05000008006C3348406940F480702E
:10360000314948610846806940F0080088610846F1
:10361000806940F0200088610846806940F04000E1
:1036200088610846806940F4807088612748006896
:1036300020F00F00254908600846006840F00300AC
:10364000086023480068234908402149086008466B
:103650000068214908431E490860081F006800F0FF
:10366000FF20091F08600846006840F0BB10086092
:103670001A4800680020194908600846006840F0B0
:10368000BB300860081F006820F07040091F086008
:103690000846006840F0304008601148406820F457
:1036A00070200F4948600846406840F43020486068
:1036B0000846006820F00F0008600846006840F0E7
:1036C0000B0008607047000000100240000C014031
:1036D0000414014000F0FF00BB0B00BB04180140C4
:1036E0000020014010B504467CB9002010498871C3
:1036F0002C2088722B20C8722A2008734FF4F07097
:1037000008804FF4487048800EE001200849887115
:103710002C2088722A20C8722B2008734FF448701E
:1037200008804FF4F0704880002000F0F7F910BDD9
:10373000081100202DE9FF4F84B081468A46002001
:10374000039002900698A0EB09050798A0EB0A06E3
:10375000CDF80490CDF800A0002D01DD012705E093
:103760000DB9002702E04FF0FF376D42002E02DD59
:103770004FF0010806E016B94FF0000802E04FF0E4
:10378000FF387642B54201DD2C4600E034464FF06A
:10379000000B21E0009A91B2019A90B200F022F859
:1037A0000398284403900298304402900398A04262
:1037B00005DD0398001B039001983844019002989E
:1037C000A04205DD0298001B029000984044009042
:1037D0000BF101001FFA80FB601C8345DADD08B0A5
:1037E000BDE8F08F30B504460D462946204600F06E
:1037F00021FA00F031FC024800880249088030BDFF
:103800009C0000200008006CF0B504460D461646EA
:103810001F462B46324629462046FFF78BFF3B4684
:10382000224629462046FFF785FF3B463246394669
:103830002046FFF77FFF3B46324629463046FFF7DA
:1038400079FFF0BD00B59DB00120079000200890E1
:103850000F20099000200A900B900C900D90009082
:1038600001900320029000200390049005900690A0
:1038700006200E9000200F90109010201190002034
:10388000129013901490159016904FF4805017904A
:103890000020189019901A9007A81B90CDF870D0AE
:1038A0000EA8FEF74BFF01210620FEF72DFF1DB0ED
:1038B00000BD00002DE9F04F05460E46174698461C
:1038C000DDF824A04FF0000B781B401C1FFA80FB92
:1038D000344613E02146284600F0ACF900F0BCFB6A
:1038E0004FF0000906E00748A0F800A009F1010028
:1038F0001FFA80F9D945F6DB601C84B24445E9DD46
:10390000BDE8F08F0008006C10B50A2004F0A1FBA0
:10391000A12000F09BFB00F0FBF87649888000F0C6
:10392000F7F874498880084680884FF6FF7101EAED
:1039300000207049888000F0EBF86E4989880843C0
:103940006C49888008468088A0F5AE41613904D171
:1039500041F663106749888003E04FF4AE60654923
:10396000888064488088A0F5C85163397DD1E22001
:1039700000F06CFB1D2000F063FB022000F060FBF8
:10398000042000F05DFB0A2004F070FBE02000F052
:103990005DFB012000F054FB012004F067FBE020F8
:1039A00000F054FB032000F04BFB0A2004F05EFB08
:1039B000012000F04BFB0A2004F058FBE62000F049
:1039C00045FB2F2000F03CFBFF2000F039FBFF20DF
:1039D00000F036FBB02000F039FB202000F030FB77
:1039E000002000F02DFB032000F02AFB40F21F30E6
:1039F00000F026FB012000F023FB40F2DF1000F076
:103A00001FFB002000F01CFBB42000F01FFB042073
:103A100000F016FB40F21F4000F012FB002000F007
:103A20000FFB2E2000F00CFB002000F009FB002013
:103A300000F006FB002000F003FB002000F000FB7C
:103A4000B62000F003FB022000F0FAFA4FF40370F6
:103A500000F0F6FA002000F0F3FA172000F0F0FA78
:103A6000152000F0EDFA002000E041E000F0E8FA57
:103A7000002000F0E5FAF02000F0E8FA032000F062
:103A8000DFFA292000F0E2FAD02000F0DFFA00206F
:103A900000F0D6FABE2000F0D9FA052000F0D0FAE6
:103AA000FE2000F0CDFA012000F0CAFA002000F05C
:103AB000C7FA002000F0C4FA002000F0C1FAB820D4
:103AC00000F0C4FA032000F0BBFA012000F0B8FABD
:103AD000BA2000F0BBFA012000F0B2FA6420FFF730
:103AE0004BFD0120FFF7FEFD47F6FF70FFF76EFD6F
:103AF00010BD00000811002010B50246012000E0B2
:103B000050430B00A1F10104E1B2F9D110BD000056
:103B100001480088704700000008006C70B5054639
:103B20000024002642488079012805D14048808839
:103B3000A0F5C851633908D13D488079F0B93C48B7
:103B40008088A0F5C851633918D1082D15D2DFE857
:103B500005F00406080A0C0E101206250DE00725D4
:103B60000BE0042509E0052507E0012505E0002517
:103B700003E0032501E0022500BF00BF2C48808838
:103B8000A0F5C851633952D1082D1CD2DFE805F0E9
:103B90000406090C0F12151800BF14E044F080044D
:103BA00011E044F040040EE044F0C0040BE044F0A7
:103BB000200408E044F0600405E044F0A00402E0C2
:103BC00044F0E00400BF00BF36263046214600F036
:103BD0004DFA1749C87A00F039FA002000F030FA9F
:103BE000002000F02DFA12490988491EC1F30F2068
:103BF00000F026FA0E490978491EC8B200F020FAF2
:103C00000B49087B00F022FA002000F019FA00208E
:103C100000F016FA06494988491EC1F30F2000F04A
:103C20000FFA03498978491EC8B200F009FA70BD3D
:103C30000811002000B502460B4624488079A8B937
:103C400022480088401E801A82B22049C87A00F0BB
:103C5000FDF9002000F0F4F9002000F0F1F9101255
:103C600000F0EEF9D0B200F0EBF916E01749C87A8F
:103C700000F0ECF9101200F0E3F9D0B200F0E0F936
:103C800012490988491EC1F30F2000F0D9F90F49E4
:103C90000978491EC8B200F0D3F90C49087B00F03E
:103CA000D5F9181200F0CCF9D8B200F0C9F90749DB
:103CB0004988491EC1F30F2000F0C2F903498978F1
:103CC000491EC8B200F0BCF900BD00000811002078
:103CD0002DE9FC4F0746884616461C46CDF8008065
:103CE0006348B0F80090A6F12000C6B20C2C01D0B9
:103CF000102C01D1A24607E0182C02D14FF0240A63
:103D000002E060064FEA106A0B9800285AD100259D
:103D100055E0102C05D1574800EB061010F805B0FF
:103D20000EE0182C07D106EBC600534901EB8000CA
:103D300010F805B004E0514800EB861010F805B00B
:103D40000020019035E01BF0800F03D04848A0F818
:103D5000009003E04A4800884549088041463846BB
:103D6000FFF740FD4FEA4B604FEA106B08F101008E
:103D70001FFA80F843480088B84204DC3C48A0F8A9
:103D80000090BDE8FC8F0098A8EB0000A0420CD189
:103D9000DDF80080781C87B23A480088B84203DC1E
:103DA0003348A0F80090ECE706E00198401CC0B250
:103DB000019001980828C6DB00BF681CC5B25545B4
:103DC000A7DB50E000254CE0102C05D1294800EB82
:103DD000061010F805B00EE0182C07D106EBC6004F
:103DE000254901EB800010F805B004E0234800EB02
:103DF000861010F805B0002001902CE01BF0800F19
:103E000003D041463846FFF7EDFC4FEA4B604FEADE
:103E1000106B08F101001FFA80F81A480088B842B8
:103E200003DC1348A0F80090ABE70098A8EB000073
:103E3000A0420CD1DDF80080781C87B211480088C0
:103E4000B84203DC0A48A0F800909AE706E001981F
:103E5000401CC0B2019001980828CFDB00BF681C4D
:103E6000C5B25545B0DB0248A0F8009000BF88E716
:103E70009C0000209B0101088B070108E714010842
:103E80009E000020081100202DE9FF4F81B0074659
:103E900091461E460E9D4FF0000A002439E0301B6B
:103EA000401EC1B20A20FFF727FEB9FBF0F00A213D
:103EB000B0FBF1F201FB1208BAF1000F16D1701E2F
:103EC000A04213DDB8F1000F0ED10020AB4605EB88
:103ED000DB71491001FB0471009088B22B4620224F
:103EE0000299FFF7F5FE12E04FF0010A0020AB4601
:103EF00005EBDB71491001FB0471009088B208F1F9
:103F00003001CAB22B460299FFF7E2FE00BF601CE7
:103F1000C4B2B442C3DB05B0BDE8F08F2DE9F84769
:103F200004460D4690469946DDE9096704F0FF0A0C
:103F300008EB04001FFA80F809EB05001FFA80F96E
:103F400016E0444502DB5446A81985B24D4500DB16
:103F500014E0002000903A78334629462046FFF7C7
:103F6000B7FE304606EBD07104EB61018CB27F1CCA
:103F700038787E2802DC38782028E2DA00BFBDE8F5
:103F8000F8872DE9FF4F82B0064692461F46DDE9CD
:103F90000F480020019000254DE0781B401EC1B263
:103FA0000A20FFF7A9FDBAFBF0F00A21B0FBF1F2FD
:103FB00001FB1209019850BB781EA84227DDB9F118
:103FC000000F22D118F0800F0FD008F00100A34697
:103FD00004EBDB71491001FB0561009088B22346B8
:103FE00030220399FFF774FE0EE008F00100A346AB
:103FF00004EBDB71491001FB0561009088B2234698
:1040000020220399FFF764FE13E00120019008F0DD
:104010000100A34604EBDB71491001FB0561009030
:1040200088B209F13001CAB223460399FFF750FE66
:1040300000BF681CC5B2BD42AFDB06B0BDE8F08F63
:1040400001490880704700000008006C01490880A1
:1040500070470000FE07006C0248807A0249088021
:104060007047000008110020FE07006C024A108013
:10407000921C118070470000FE07006C10B50124EF
:104080000AE00749486880470548007F10F0800F24
:1040900001D0012400E00024002CF2D110BD00006A
:1040A000AC0000202DE9F0410746884614461D4625
:1040B000284600F037F8C5F1040007FA00F60F2093
:1040C000284100EA0800064306F00F06202C0CDA0F
:1040D000114801684FF0010000FA04F041EA0001C4
:1040E0004FF0E020C0F800110DE00C480068A4F18A
:1040F00020014FF0010202FA01F240EA02004FF003
:10410000E021C1F804010648005D40EA06100449B8
:104110000855BDE8F081000000E100E004E100E0A6
:1041200000E400E00146072323EA01021202054BE6
:1041300018684FF6FF031840034B18431043014B18
:10414000186070470CED00E00000FA0500BFFEE7C4
:104150007047000070B5002100230F22C4780CB313
:10416000164C246804F4E064C4F5E064210AC1F14B
:104170000403CA40447804FA03F1847814402143CC
:1041800009010F4C0678A155047804F01F0501249D
:10419000AC4005786D114FF0E02606EB8505C5F8BB
:1041A000004109E0047804F01F050124AC40054DEE
:1041B0000678761145F8264070BD00000CED00E051
:1041C00000E400E080E100E0FEB5002500264EF6A8
:1041D0005B70D2234FF43C72562100904FF409706B
:1041E000FFF768FBD02340F2EE22582140F2262050
:1041F000FFF70AFB0023C8226C2140F2262004F0BE
:1042000001FA0023C822802140F2262004F0FAF9A6
:104210000023C822942140F2262004F0F3F9002361
:10422000C822A82140F2262004F0ECF90023C8227D
:10423000BC2140F2262004F0E5F900237822582121
:1042400040F28A2004F0F0F901201021F7A20B4679
:10425000CDE9002102904FF448725A214FF41270B8
:1042600002F0B2FC01201021F2A20B46CDE90021A0
:1042700002904FF448725A214FF42B7002F0A4FCC4
:1042800001270020ED490880ED490870ED490870CC
:10429000ED490870ED490870ED49087009E2002405
:1042A00003F05DF803F074F9FDF768FEE448007868
:1042B00088B1012E0FD1E748007860B90020E049AD
:1042C0000870E1490870E44908700321E348007868
:1042D00001F09CFFEDE1012E0ED1D948007858B1D4
:1042E000DC480078022807D10020D5490870D94958
:1042F000087000270026DCE1D748007820B90221A9
:10430000D648007801F082FFCF480078002871D0AD
:10431000D148007802286DD10020CB4908700121D6
:10432000CE48007801F072FF80201021CDE9001006
:10433000CB48027805EB85006E2303EB8001022356
:104340004FF40E70FFF71DFE01201021C5A2CDE92C
:1043500000210290C448028805EB85006E2303EB20
:10436000800110234FF4127002F02EFC80201021E7
:10437000CDE90010BA48427805EB85006E2303EBC7
:10438000800102234FF41470FFF7FBFD0120102180
:10439000B4A2CDE900210290B348028805EB850064
:1043A0006E2303EB800110234FF4187002F00CFC15
:1043B00080201021CDE90010A948827805EB850006
:1043C0006E2303EB800102234FF41A70FFF7D9FD2F
:1043D00080201021CDE9001005EB85006E2202EB54
:1043E00080010823A14802684FF42770FFF7C9FD38
:1043F000681CC5B2052D59D100254EF65B70D2233D
:104400004FF43C72562100904FF40970FFF752FAB6
:10441000D02340F2EE22582140F22620FFF7F4F993
:104420000023C8226C2140F2262004F0EBF8002380
:10443000C822802140F2262004F0E4F80023C8229C
:10444000942140F2262004F0DDF80023C822A821A0
:1044500040F2262004F0D6F80023C822BC2140F206
:10446000262004F0CFF800237822582140F28A2039
:1044700004F0DAF8012010216CA20B46CDE90021EE
:1044800002904FF448725A214FF4127002F09CFBD4
:104490000120102167A20B46CDE9002102904FF4C4
:1044A00048725A214FF42B7002F08EFBFEF762FA2D
:1044B0006F48007F10F0800F7DD06D48083030F8D5
:1044C0001400B0F5977F37DB6948083030F81400E6
:1044D000B0F5CF7F30DC6648123030F81400B0F50C
:1044E000B37F29DD6248123030F81400B0F5CC7F7C
:1044F00022DA6048007801281ED15F490870FFF772
:10450000BDFD642008F0D6F93223722240F27F11FB
:104510004FF4B37000F0FEFB0120182157A20B46A8
:10452000CDE9002102904FF4487240F273114FF42C
:104530009B7002F049FBBBE04D48083030F8140096
:10454000B0F5EE7F3BDD4A48083030F8140040F209
:104550004E21884233DA4648123030F81400B0F564
:10456000B37F2CDD4248123030F81400B0F5CC7F18
:1045700025DA40480078022821D101203E49087000
:10458000FFF77CFD642008F095F93223722240F297
:104590007F1140F2152000F0BDFB012018213AA246
:1045A0000B46CDE9002102904FF4487240F273119E
:1045B00040F2FD1000E006E002F006FB78E000208B
:1045C0002D49087074E02C48007870B32A480078B0
:1045D000012868D101260020274908702548007865
:1045E00001280ED12A48007818B90020294908600E
:1045F00002E00020284908604FF0000027490860C9
:1046000002E000202649086047F6FF704FF0D20311
:104610004FF43C724FF0560100904FF40970FFF7D1
:1046200049F90020134908703EE041E0CAB1BCE4FA
:1046300000000000C5A8B6C8000000008C000020E3
:1046400006000020070000200800002009000020CC
:104650000A0000200C0000200B00002001000020B8
:10466000FE1000203A000000081100203C0000204D
:10467000AC0000200500002076000020BFD5D4D873
:10468000CAD4D1E900000000C7E5BDE00000000089
:104690007500002094812142940123429C81214293
:1046A00098812142FFE700BF00BF00200349087046
:1046B00000BF002F7FF4F3ADFEBD000076000020A8
:1046C000014908627047000000000E4200F001013D
:1046D000114A1160C0F34001104AC2F8AC11C0F396
:1046E00080010F4A1160C0F3C001A2F10402116001
:1046F000C0F30011A2F104021160C0F34011094A95
:104700001160C0F3801102F1040211604FEAD01170
:10471000024AC2F898117047A801224200002242C2
:10472000A401224298012442704700002DE9FC4177
:10473000002400250020009001901B2008F076F84E
:10474000402008F073F8F8A000F074FA0D2008F08B
:104750006DF80A2008F06AF8F7A000F06BFAF94843
:10476000407EF849097E00EB012084B22046FBF729
:104770005AFF0646F449FBF785FD05462846FBF738
:1047800091FF064632460B46F0A1684602F0D8FF7C
:104790000521684600F05CFAEEA000F04BFA0D200F
:1047A00008F044F80A2008F041F8EBA000F042FAC3
:1047B000E448C07DE349897D00EB012084B22046B6
:1047C000FBF731FF0646E049FBF75CFD054628464E
:1047D000FBF768FF064632460B46DCA1684602F04E
:1047E000AFFF0521684600F033FADAA000F022FAA4
:1047F0000D2008F01BF80A2008F018F8D9A000F0E6
:1048000019FAD048407DCF49097D00EB012084B2E0
:104810002046FBF708FF0646CB49FBF733FD05466C
:104820002846FBF73FFF064632460B46C7A16846BF
:1048300002F086FF0521684600F00AFAC5A000F0E4
:10484000F9F90D2007F0F2FF0A2007F0EFFFC8A0EA
:1048500000F0F0F9BB48C07CBA49897C00EB01202C
:1048600084B22046FBF7DFFE0646B749FBF70AFD98
:1048700005462846FBF716FF064632460B46B3A10F
:10488000684602F05DFF0521684600F0E1F9B1A03D
:1048900000F0D0F90D2007F0C9FF0A2007F0C6FF8D
:1048A000B6A000F0C7F9A748407CA649097C00EBF8
:1048B000012084B22046FBF7B6FE0646A249FBF76C
:1048C000E1FC05462846FBF7EDFE064632460B4660
:1048D0009EA1684602F034FF0521684600F0B8F951
:1048E0009CA000F0A7F90D2007F0A0FF0A2007F018
:1048F0009DFFA5A000F09EF99248C07B9149897B5D
:1049000000EB012084B22046FBF78DFE06468E495F
:10491000FBF7B8FC05462846FBF7C4FE06463246C0
:104920000B468AA1684602F00BFF0521684600F09D
:104930008FF988A000F07EF90D2007F077FF0A209C
:1049400007F074FF93A000F075F90D2007F06EFFDB
:104950000A2007F06BFF94A000F06CF98DA000F026
:1049600069F90D2007F062FF0A2007F05FFF93A0AE
:1049700000F060F97348C07A7249897A00EB01202F
:1049800084B222468FA1684602F0DAFE042168460E
:1049900000F05EF98DA000F04DF90D2007F046FF04
:1049A0000A2007F043FF8AA000F044F96548007B25
:1049B00018B989A000F03EF902E08AA000F03AF9A7
:1049C0000D2007F033FF0A2007F030FF88A000F029
:1049D00031F95C48027988A1684602F0B1FE0221F3
:1049E000684600F035F97BA000F024F9554842797B
:1049F00081A1684602F0A4FE0221684600F028F971
:104A000074A000F017F94F4882797BA1684602F044
:104A100097FE0221684600F01BF90D2007F006FF03
:104A20000A2007F003FF76A000F004F9454840781B
:104A30004449097800EB012084B2224661A168460E
:104A400002F07EFE0421684600F002F96EA000F03C
:104A5000F1F83C48827868A1684602F071FE0221B4
:104A6000684600F0F5F868A000F0E4F83548C27830
:104A700061A1684602F064FE0221684600F0E8F891
:104A80000D2007F0D3FE0A2007F0D0FE5FA000F053
:104A9000D1F82C48407B18B95EA000F0CBF802E0BA
:104AA0005EA000F0C7F80D2007F0C0FE0A2007F056
:104AB000BDFE5CA000F0BEF82248007A2149C97909
:104AC00000EB012084B222463EA1684602F038FE87
:104AD0000421684600F0BCF80D2007F0A7FE0A206C
:104AE00007F0A4FE52A000F0A5F81648427A42A1B1
:104AF000684602F025FE0221684600F0A9F80D2064
:104B000007F094FE0A2007F091FE0D2007F08EFEBC
:104B10000A2007F08BFE0D2007F088FE0A2007F020
:104B200085FEBDE8FC8100002D2D2D2D2D2D2D2D78
:104B30002D2D2D2D2D2D2D0040A1DD3130756D2019
:104B400020200000E40000200000C842252D352E62
:104B5000326600002500000040A1DD35756D202083
:104B60002020000040A1DD33756D202020200000B2
:104B700040A1DD31756D20202020000040A1DD30F6
:104B80002E35756D2020000040A1DD302E33756D6F
:104B9000202000002D2D2D2D2D2D2D2D2D2D2D2DB9
:104BA0002D2D2D2D00000000202020202020205021
:104BB0004645202020202020000000005072657310
:104BC000733A00002530346400000000506100009A
:104BD000466C6F773A00000033322E304C2F4D690F
:104BE0006E00000038352E304C2F4D696E000000ED
:104BF00054696D653A000000253032640000000001
:104C0000446174613A0000002F000000547970651F
:104C10003A0000004E41434C000000004445485318
:104C2000000000004F70657261746F723A000000FE
:104C30004E4F3A0010B5044606E014F8010B07F099
:104C4000F5FD022003F01EFA20780028F5D110BDF2
:104C500070B504460D46002608E014F8010B07F075
:104C6000E5FD022003F00EFA701CC6B2207808B1F0
:104C7000AE42F2DB70BD000008B501214FF48A702E
:104C800000F0CAFA4FF48050ADF8000010208DF803
:104C9000030003208DF8020069461B48FDF760FF02
:104CA0004FF480511848FDF7E4FF4FF47C60ADF8F5
:104CB000000069461548FDF753FF4FF47C61134827
:104CC000FDF7D7FFC020ADF8000069461048FDF79A
:104CD00047FFC0210E48FDF7CCFF2020ADF80000B3
:104CE00069460B48FDF73CFF20210948FDF7C3FF4B
:104CF0001020ADF8000028208DF803006946044814
:104D0000FDF72EFF08BD0000000801400010014023
:104D1000002001400FB589B00B98049000EBD070D3
:104D200041100998401A80B208900C98049000EB4A
:104D3000D07041100A98401A80B207900B980490E6
:104D400000EBD07041100998084480B206900C988E
:104D5000049000EBD07041100A98084480B205908E
:104D6000FE4800880090DDE90532DDE90710FEF716
:104D7000A1FDFB48008800900598401C80B204907B
:104D80000898401E80B203900798401E80B202909F
:104D90000898401E80B2019002A90EC9FEF78AFD54
:104DA000EF48008800900598801C80B20490089815
:104DB000801E80B203900798801E80B202900898EF
:104DC000801E80B2019002A90EC9FEF773FDE4486F
:104DD000008800900598C01C80B204900898C01EFE
:104DE00080B203900798C01E80B202900898C01E3F
:104DF00080B2019002A90EC9FEF75CFDD848008878
:104E000000900798401E80B204900698401C80B223
:104E100003900798401E80B202900898401E80B20E
:104E2000019002A90EC9FEF745FDCD48008800900B
:104E30000798801E80B204900698801C80B2039070
:104E40000798801E80B202900898801E80B2019060
:104E500002A90EC9FEF72EFDC148008800900798F0
:104E6000C01E80B204900698C01C80B203900798C0
:104E7000C01E80B202900898C01E80B2019002A9A4
:104E80000EC9FEF717FDB748008800900598401C32
:104E900080B204900698401C80B203900698401C93
:104EA00080B20290DDE903230799FEF703FDAD48C8
:104EB000008800900598801C80B204900698801CA1
:104EC00080B203900798401E80B202900698801C22
:104ED00080B2019002A90EC9FEF7ECFCA14800883F
:104EE00000900598C01C80B204900698C01C80B247
:104EF00003900798801E80B202900698C01C80B272
:104F0000019002A90EC9FEF7D5FC964800880090D2
:104F10000598401E80B204900698401C80B2039011
:104F20000898401E80B20290DDE903230599FEF740
:104F3000C1FC8C48008800900598801C80B20490C9
:104F40000698801C80B203900598401C80B20290A5
:104F50000898801E80B2019002A90EC9FEF7AAFC33
:104F60008048008800900598C01C80B20490069884
:104F7000C01C80B203900598801C80B202900898F3
:104F8000C01E80B2019002A90EC9FEF793FC0B98D7
:104F900032287DDD7248008800900598001D80B29F
:104FA00004900898001F80B203900798001F80B2F9
:104FB00002900898001F80B2019002A90EC9FEF766
:104FC00079FC6748008800900598401D80B20490E5
:104FD0000898401F80B203900798401F80B202904B
:104FE0000898401F80B2019002A90EC9FEF762FC2A
:104FF0005B48008800900598801D80B20490089856
:10500000801F80B203900798801F80B2029008989A
:10501000801F80B2019002A90EC9FEF74BFC5048D8
:10502000008800900798001F80B204900698001D29
:1050300080B203900798001F80B202900898001F6A
:1050400080B2019002A90EC9FEF734FC44480088E2
:1050500000900798401F80B204900698401D80B2CF
:1050600003900798401F80B202900898401F80B2BA
:10507000019002A90EC9FEF71DFC39480088009076
:105080000798801F80B204900698801D80B200E0CF
:105090009DE003900798801F80B202900898801FBF
:1050A00080B2019002A90EC9FEF704FC2D480088C9
:1050B00000900598001D80B204900698001D80B2F3
:1050C00003900798C01E80B202900698001D80B21F
:1050D000019002A90EC9FEF7EDFB2248008800905E
:1050E0000598401D80B204900698401D80B2039040
:1050F0000798001F80B202900698401D80B2019070
:1051000002A90EC9FEF7D6FB164800880090059844
:10511000801D80B204900698801D80B2039007988D
:10512000401F80B202900698801D80B2019002A9B3
:105130000EC9FEF7BFFB0B48008800900598001DC4
:1051400080B204900698001D80B203900598C01CA0
:1051500080B202900898001F80B205E0A0000020F5
:10516000A2000020A4000020019002A90EC9FEF7B1
:10517000A1FB1848008800900598401D80B204905B
:105180000698401D80B203900598001D80B20290E1
:105190000898401F80B2019002A90EC9FEF78AFB51
:1051A0000C48008800900598801D80B204900698F5
:1051B000801D80B203900598401D80B2029008982F
:1051C000801F80B2019002A90EC9FEF773FB0DB0DB
:1051D00000BD0000A400002029B1064A5269024324
:1051E000044B5A6104E0034A52698243014B5A61FD
:1051F000704700000010024029B1064AD2690243FC
:10520000044BDA6104E0034AD2698243014BDA615C
:10521000704700000010024029B1064A926902431B
:10522000044B9A6104E0034A92698243014B9A61FC
:1052300070470000001002400149086070470000FC
:105240004004424210B5012140F2FD10FFF7E4FF97
:1052500001210802FFF7C0FF01214FF4A040FFF732
:10526000CBFF01214804FFF7C7FF10BD30B5002177
:105270000022002400232D4D6D6805F00C0121B1A2
:10528000042905D0082923D105E0294D056022E035
:10529000274D05601FE0254D6D6805F47012234D04
:1052A0006D6805F48034022505EB92421CB9214D4E
:1052B000554305600BE01D4D6D6815F4003F03D0AC
:1052C0001C4D5543056002E0194D5543056002E051
:1052D000174D056000BF00BF144D6D6805F0F0016B
:1052E0000909154D6B5C0568DD4045600F4D6D6823
:1052F00005F4E061090A104D6B5C4568DD4085608E
:105300000A4D6D6805F46051C90A0B4D6B5C456828
:10531000DD40C560054D6D6805F44041890B074DC2
:105320006B5CC568B5FBF3F5056130BD001002404C
:1053300000127A0000093D00CF000020DF000020AD
:1053400010B501460022002300204A11012A02D193
:10535000094C236806E0022A02D1074C236A01E0C7
:10536000054C636A01F01F02012494401C4201D0E5
:10537000012000E0002010BD0010024000210A4A78
:1053800011700A4A82F82010012802D0042808D19E
:1053900003E00121044A117004E00521024A117062
:1053A00000E000BF00BF7047201002400010024024
:1053B00001490860704700003C0442420249096A02
:1053C0000143014A116270470010024003480088FF
:1053D00040F0100001490880704700000428004098
:1053E000034800884FF6EF71084001490880704774
:1053F0000428004070B50026002400253A4806889D
:105400003604001D008806443848B6FBF0F43848DE
:105410000088A0423AD036490C8040F2B2750EE0C6
:105420002846FDF74FFE30B1B4F5B77F02D3A4F59F
:10543000B77402E006E0A4F26D14681C85B2B4F5FE
:10544000B67FEDD800BF2B488580002516E029499E
:105450008888FDF737FE30B1012D04D11D2C01D312
:105460001D3C09E00CE02448405DA04203D82248DE
:10547000405D241A00E003E0681C85B21C2CE6D2D3
:1054800000BF681C1B498871601CC8711748B6FBB7
:10549000F0F100FB11644FF46160B4FBF0F01549CA
:1054A00008704FF46160B4FBF0F100FB11403C2147
:1054B000B0FBF1F00F4948704FF46160B4FBF0F1BC
:1054C00000FB11403C21B0FBF1F201FB1200094945
:1054D00088700B46DA799979988800F00FF80549B9
:1054E0000872002070BD00001828004080510100A3
:1054F00098000020FE100020A5D60008F0B5034655
:105500000C461546642093FBF0F0C6B2642093FB72
:10551000F0F700FB1730C1B2132E02DD01F1640079
:10552000C1B20846CF1701EB977701EBA70207201E
:1055300092FBF0F700FB172082B25719601EDFF8CC
:1055400030C01CF80000384482B2CF1701EB9777C7
:10555000BF10B1EB870703D1032C01DA501E82B2D2
:10556000072092FBF0F700FB1720C0B2F0BD00004F
:1055700099D6000800B51048008810F0010F01D03E
:10558000FFF738FF0C48008810F0020F05D00A48DA
:10559000008820F00200084908800748008840F68B
:1055A000FA7108400449088000BF0348008810F0E1
:1055B000200FFAD000BD00000428004029B1064A9F
:1055C00012880243044B1A8004E0034A1288824383
:1055D000014B1A8070470000002800401CB50024D1
:1055E0000420FCF7A7F9A0F5A041503948D00121CB
:1055F0004FF0C050FFF700FE0120FFF761F8FCF705
:1056000091F90120FFF7BAFE04E0601CC4B20A2041
:1056100002F01FFD4120FFF793FE08B9FA2CF4DBDE
:10562000FA2C01DB01201CBD4FF48070FFF7C6FE91
:105630000120FFF7BDFE00F0CDF800F0D5F8012104
:105640000846FFF7BBFF00F0C5F8FFF7BFFE47F6BF
:10565000FF7000F0AFF800F0BDF8372000210A23FA
:105660000222CDE900100C2140F2D97000F01AF8A6
:10567000FFF7B6FE45F250010420FCF769F907E098
:1056800000F0B2F801210846FFF798FF00F0A2F8F9
:105690000223032200210846FEF704FDFFF7AAFEBD
:1056A0000020C0E72DE9F04F06460F469046994688
:1056B000DDE909AB002440F2B270864203DB40F61C
:1056C0003300864202DD0120BDE8F08F40F2B27562
:1056D0000AE02846FDF7F6FC10B12F48044401E02B
:1056E0002E480444681C85B2B542F2DB781EC7B26E
:1056F000002510E02A48405D40F2A321484304EB16
:10570000C0143046FDF7DEFC18B1012D01D125484B
:105710000444681C85B2BD42ECDBA8F1010040F2F4
:10572000A321484304EBC014C9EB4910C0EB092086
:1057300004EB0014CAEB0A1004EB80045C441A4822
:10574000C06940F080501849C8610846C06940F0FF
:105750000060C8611548006840F480701349086013
:105760001348008840F01000114908801049183192
:105770000C80200C091F08800D48008820F01000C4
:105780000B49088000BF0A48008810F0200FFAD0AB
:10579000FFF730FE002097E70085E2018033E1014A
:1057A000A5D60008805101000010024000700040A2
:1057B0000428004000B50246FFF708FEC2F303408C
:1057C00003490880091D0A80FFF70AFE00BD00009A
:1057D0000828004000BF0348008810F0200FFAD0CE
:1057E0007047000004280040064800884FF6F77113
:1057F00008400449088000BF0248008810F0080FE4
:10580000FAD070470428004070B51148008810F0A5
:10581000200F1BD001200F490872002048720C484D
:1058200001F0AAFE0446E5B20A4801880A48455438
:1058300008480088401C074908800846008840F254
:105840002621884202DB00200249088070BD00004A
:1058500000440040181100205213002000B52D48CC
:10586000806940F001002B4988610846806940F05A
:10587000040088610846806940F4805088612648A9
:105880000068C0F3130024490860084600682349F3
:1058900008432149086020480C30006840F0E000CF
:1058A0001D490C3108601E4800881D4908800846C3
:1058B000008840F4007008800846008840F480703A
:1058C00008800846008840F00400088008460088E8
:1058D00008800846008840F00200088008460088DA
:1058E00040F0010008800846008840F03800088039
:1058F0000846008808800846808840F0400088807C
:105900000846008840F040000880FF2000F00AF8B8
:1059100000BD000000100240000801400000B0BBC4
:10592000003001400246002105E0481CC1B2C829F0
:1059300001DD002070470C48008910F0020FF4D000
:1059400009488281002105E0481CC1B2C82901DD57
:105950000020EFE70448008910F0010FF4D002485E
:105960008089C0B2E6E700000030014000B587B092
:105970004FF46040ADF8180018208DF81B0003208C
:105980008DF81A0006A91848FDF7EAF84FF46041AF
:105990001548FDF770F90020ADF804004FF482704F
:1059A000ADF806000020ADF808000220ADF80A00AE
:1059B0000120ADF80C004002ADF80E003820ADF823
:1059C00010000020ADF812000720ADF8140001A966
:1059D000064800F0C5F90121044800F061F8FF20F5
:1059E00000F006F807B000BD000C01400038004090
:1059F00070B50546002405E0601CC4B2C82C01DD6A
:105A0000002070BD02210E4800F09CF90028F3D060
:105A100029460B4800F0A2F9002405E0601CC4B23E
:105A2000C82C01DD0020ECE70121054800F08AF9CF
:105A30000028F3D0024800F08EF9C0B2E1E7000080
:105A40000038004010B50446074800884FF6C7717B
:105A50000840054908800846008820430880012145
:105A6000014800F01DF810BD0038004008B50121C4
:105A70000420FFF7D1FB1020ADF800008DF80300E3
:105A800003208DF8020069460448FDF769F81021EB
:105A90000248FDF7F0F8FFF7E1FE08BD00080140FD
:105AA00021B1028842F04002028004E002884FF6F1
:105AB000BF731A400280704710B500200549086086
:105AC0004FF00600FFF794FF01200349C1F8B00131
:105AD00010BD0000B08121420080214210B5044673
